{
  "address": "0x195bfD8Db6e173D8b2025B5AAB96B95e4fd612E3",
  "abi": [
    {
      "inputs": [
        {
          "internalType": "address",
          "name": "_old",
          "type": "address"
        }
      ],
      "stateMutability": "nonpayable",
      "type": "constructor"
    },
    {
      "inputs": [],
      "name": "latestAnswer",
      "outputs": [
        {
          "internalType": "int256",
          "name": "",
          "type": "int256"
        }
      ],
      "stateMutability": "view",
      "type": "function"
    }
  ],
  "transactionHash": "0xbe50869076b630183afc396375b59b505e912ba92054dc95f0be7392b208d648",
  "args": [
    "0xf55dA02f8266eC89A58C6De361cf92ce9cee21fe"
  ],
  "numDeployments": 1,
  "solcInputHash": "9afc5d7c26b8cf69bdb575fd8439b093",
  "bytecode": "0x608060405234801561001057600080fd5b5060405161022138038061022183398101604081905261002f91610054565b600080546001600160a01b0319166001600160a01b0392909216919091179055610084565b60006020828403121561006657600080fd5b81516001600160a01b038116811461007d57600080fd5b9392505050565b61018e806100936000396000f3fe608060405234801561001057600080fd5b506004361061002b5760003560e01c806350d25bcd14610030575b600080fd5b61003861004a565b60405190815260200160405180910390f35b60008054604080517ffeaf968c0000000000000000000000000000000000000000000000000000000081529051839273ffffffffffffffffffffffffffffffffffffffff169163feaf968c9160048083019260a09291908290030181865afa1580156100ba573d6000803e3d6000fd5b505050506040513d601f19601f820116820180604052508101906100de9190610108565b509195945050505050565b805169ffffffffffffffffffff8116811461010357600080fd5b919050565b600080600080600060a0868803121561012057600080fd5b610129866100e9565b945060208601519350604086015192506060860151915061014c608087016100e9565b9050929550929590935056fea26469706673582212206ed32051411cc9c6234c1b99eaf628b23a7b06c049082249c62ad4ac8f639dcb64736f6c63430008110033",
  "devdoc": {
    "kind": "dev",
    "methods": {},
    "version": 1
  },
  "userdoc": {
    "kind": "user",
    "methods": {},
    "version": 1
  },
  "storageLayout": {
    "storage": [
      {
        "astId": 1037,
        "contract": "src/iotxregistrar/StablePriceOracle.sol:AggregatorProxy",
        "label": "old",
        "offset": 0,
        "slot": "0",
        "type": "t_contract(ShadowAggregatorInterface)1032"
      }
    ],
    "types": {
      "t_contract(ShadowAggregatorInterface)1032": {
        "encoding": "inplace",
        "label": "contract ShadowAggregatorInterface",
        "numberOfBytes": "20"
      }
    }
  }
}