{
  "address": "0xaa0ec613Aa7e8D9704Bf3CF1991280d9e9a10905",
  "abi": [
    {
      "inputs": [
        {
          "internalType": "contract INS",
          "name": "_ins",
          "type": "address"
        },
        {
          "internalType": "contract INameWrapper",
          "name": "wrapperAddress",
          "type": "address"
        },
        {
          "internalType": "address",
          "name": "_trustedETHController",
          "type": "address"
        },
        {
          "internalType": "address",
          "name": "_trustedReverseRegistrar",
          "type": "address"
        }
      ],
      "stateMutability": "nonpayable",
      "type": "constructor"
    },
    {
      "anonymous": false,
      "inputs": [
        {
          "indexed": true,
          "internalType": "bytes32",
          "name": "node",
          "type": "bytes32"
        },
        {
          "indexed": true,
          "internalType": "uint256",
          "name": "contentType",
          "type": "uint256"
        }
      ],
      "name": "ABIChanged",
      "type": "event"
    },
    {
      "anonymous": false,
      "inputs": [
        {
          "indexed": true,
          "internalType": "bytes32",
          "name": "node",
          "type": "bytes32"
        },
        {
          "indexed": false,
          "internalType": "address",
          "name": "a",
          "type": "address"
        }
      ],
      "name": "AddrChanged",
      "type": "event"
    },
    {
      "anonymous": false,
      "inputs": [
        {
          "indexed": true,
          "internalType": "bytes32",
          "name": "node",
          "type": "bytes32"
        },
        {
          "indexed": false,
          "internalType": "uint256",
          "name": "coinType",
          "type": "uint256"
        },
        {
          "indexed": false,
          "internalType": "bytes",
          "name": "newAddress",
          "type": "bytes"
        }
      ],
      "name": "AddressChanged",
      "type": "event"
    },
    {
      "anonymous": false,
      "inputs": [
        {
          "indexed": true,
          "internalType": "address",
          "name": "owner",
          "type": "address"
        },
        {
          "indexed": true,
          "internalType": "address",
          "name": "operator",
          "type": "address"
        },
        {
          "indexed": false,
          "internalType": "bool",
          "name": "approved",
          "type": "bool"
        }
      ],
      "name": "ApprovalForAll",
      "type": "event"
    },
    {
      "anonymous": false,
      "inputs": [
        {
          "indexed": false,
          "internalType": "address",
          "name": "owner",
          "type": "address"
        },
        {
          "indexed": true,
          "internalType": "bytes32",
          "name": "node",
          "type": "bytes32"
        },
        {
          "indexed": true,
          "internalType": "address",
          "name": "delegate",
          "type": "address"
        },
        {
          "indexed": true,
          "internalType": "bool",
          "name": "approved",
          "type": "bool"
        }
      ],
      "name": "Approved",
      "type": "event"
    },
    {
      "anonymous": false,
      "inputs": [
        {
          "indexed": true,
          "internalType": "bytes32",
          "name": "node",
          "type": "bytes32"
        },
        {
          "indexed": false,
          "internalType": "bytes",
          "name": "hash",
          "type": "bytes"
        }
      ],
      "name": "ContenthashChanged",
      "type": "event"
    },
    {
      "anonymous": false,
      "inputs": [
        {
          "indexed": true,
          "internalType": "bytes32",
          "name": "node",
          "type": "bytes32"
        },
        {
          "indexed": true,
          "internalType": "bytes4",
          "name": "interfaceID",
          "type": "bytes4"
        },
        {
          "indexed": false,
          "internalType": "address",
          "name": "implementer",
          "type": "address"
        }
      ],
      "name": "InterfaceChanged",
      "type": "event"
    },
    {
      "anonymous": false,
      "inputs": [
        {
          "indexed": true,
          "internalType": "bytes32",
          "name": "node",
          "type": "bytes32"
        },
        {
          "indexed": false,
          "internalType": "string",
          "name": "name",
          "type": "string"
        }
      ],
      "name": "NameChanged",
      "type": "event"
    },
    {
      "anonymous": false,
      "inputs": [
        {
          "indexed": true,
          "internalType": "bytes32",
          "name": "node",
          "type": "bytes32"
        },
        {
          "indexed": false,
          "internalType": "bytes32",
          "name": "x",
          "type": "bytes32"
        },
        {
          "indexed": false,
          "internalType": "bytes32",
          "name": "y",
          "type": "bytes32"
        }
      ],
      "name": "PubkeyChanged",
      "type": "event"
    },
    {
      "anonymous": false,
      "inputs": [
        {
          "indexed": true,
          "internalType": "bytes32",
          "name": "node",
          "type": "bytes32"
        },
        {
          "indexed": true,
          "internalType": "string",
          "name": "indexedKey",
          "type": "string"
        },
        {
          "indexed": false,
          "internalType": "string",
          "name": "key",
          "type": "string"
        },
        {
          "indexed": false,
          "internalType": "string",
          "name": "value",
          "type": "string"
        }
      ],
      "name": "TextChanged",
      "type": "event"
    },
    {
      "anonymous": false,
      "inputs": [
        {
          "indexed": true,
          "internalType": "bytes32",
          "name": "node",
          "type": "bytes32"
        },
        {
          "indexed": false,
          "internalType": "uint64",
          "name": "newVersion",
          "type": "uint64"
        }
      ],
      "name": "VersionChanged",
      "type": "event"
    },
    {
      "inputs": [
        {
          "internalType": "bytes32",
          "name": "node",
          "type": "bytes32"
        },
        {
          "internalType": "uint256",
          "name": "contentTypes",
          "type": "uint256"
        }
      ],
      "name": "ABI",
      "outputs": [
        {
          "internalType": "uint256",
          "name": "",
          "type": "uint256"
        },
        {
          "internalType": "bytes",
          "name": "",
          "type": "bytes"
        }
      ],
      "stateMutability": "view",
      "type": "function"
    },
    {
      "inputs": [
        {
          "internalType": "bytes32",
          "name": "node",
          "type": "bytes32"
        }
      ],
      "name": "addr",
      "outputs": [
        {
          "internalType": "address payable",
          "name": "",
          "type": "address"
        }
      ],
      "stateMutability": "view",
      "type": "function"
    },
    {
      "inputs": [
        {
          "internalType": "bytes32",
          "name": "node",
          "type": "bytes32"
        },
        {
          "internalType": "uint256",
          "name": "coinType",
          "type": "uint256"
        }
      ],
      "name": "addr",
      "outputs": [
        {
          "internalType": "bytes",
          "name": "",
          "type": "bytes"
        }
      ],
      "stateMutability": "view",
      "type": "function"
    },
    {
      "inputs": [
        {
          "internalType": "bytes32",
          "name": "node",
          "type": "bytes32"
        },
        {
          "internalType": "address",
          "name": "delegate",
          "type": "address"
        },
        {
          "internalType": "bool",
          "name": "approved",
          "type": "bool"
        }
      ],
      "name": "approve",
      "outputs": [],
      "stateMutability": "nonpayable",
      "type": "function"
    },
    {
      "inputs": [
        {
          "internalType": "bytes32",
          "name": "node",
          "type": "bytes32"
        }
      ],
      "name": "clearRecords",
      "outputs": [],
      "stateMutability": "nonpayable",
      "type": "function"
    },
    {
      "inputs": [
        {
          "internalType": "bytes32",
          "name": "node",
          "type": "bytes32"
        }
      ],
      "name": "contenthash",
      "outputs": [
        {
          "internalType": "bytes",
          "name": "",
          "type": "bytes"
        }
      ],
      "stateMutability": "view",
      "type": "function"
    },
    {
      "inputs": [
        {
          "internalType": "bytes32",
          "name": "node",
          "type": "bytes32"
        },
        {
          "internalType": "bytes4",
          "name": "interfaceID",
          "type": "bytes4"
        }
      ],
      "name": "interfaceImplementer",
      "outputs": [
        {
          "internalType": "address",
          "name": "",
          "type": "address"
        }
      ],
      "stateMutability": "view",
      "type": "function"
    },
    {
      "inputs": [
        {
          "internalType": "address",
          "name": "owner",
          "type": "address"
        },
        {
          "internalType": "bytes32",
          "name": "node",
          "type": "bytes32"
        },
        {
          "internalType": "address",
          "name": "delegate",
          "type": "address"
        }
      ],
      "name": "isApprovedFor",
      "outputs": [
        {
          "internalType": "bool",
          "name": "",
          "type": "bool"
        }
      ],
      "stateMutability": "view",
      "type": "function"
    },
    {
      "inputs": [
        {
          "internalType": "address",
          "name": "account",
          "type": "address"
        },
        {
          "internalType": "address",
          "name": "operator",
          "type": "address"
        }
      ],
      "name": "isApprovedForAll",
      "outputs": [
        {
          "internalType": "bool",
          "name": "",
          "type": "bool"
        }
      ],
      "stateMutability": "view",
      "type": "function"
    },
    {
      "inputs": [
        {
          "internalType": "bytes[]",
          "name": "data",
          "type": "bytes[]"
        }
      ],
      "name": "multicall",
      "outputs": [
        {
          "internalType": "bytes[]",
          "name": "results",
          "type": "bytes[]"
        }
      ],
      "stateMutability": "nonpayable",
      "type": "function"
    },
    {
      "inputs": [
        {
          "internalType": "bytes32",
          "name": "nodehash",
          "type": "bytes32"
        },
        {
          "internalType": "bytes[]",
          "name": "data",
          "type": "bytes[]"
        }
      ],
      "name": "multicallWithNodeCheck",
      "outputs": [
        {
          "internalType": "bytes[]",
          "name": "results",
          "type": "bytes[]"
        }
      ],
      "stateMutability": "nonpayable",
      "type": "function"
    },
    {
      "inputs": [
        {
          "internalType": "bytes32",
          "name": "node",
          "type": "bytes32"
        }
      ],
      "name": "name",
      "outputs": [
        {
          "internalType": "string",
          "name": "",
          "type": "string"
        }
      ],
      "stateMutability": "view",
      "type": "function"
    },
    {
      "inputs": [
        {
          "internalType": "bytes32",
          "name": "node",
          "type": "bytes32"
        }
      ],
      "name": "pubkey",
      "outputs": [
        {
          "internalType": "bytes32",
          "name": "x",
          "type": "bytes32"
        },
        {
          "internalType": "bytes32",
          "name": "y",
          "type": "bytes32"
        }
      ],
      "stateMutability": "view",
      "type": "function"
    },
    {
      "inputs": [
        {
          "internalType": "bytes32",
          "name": "",
          "type": "bytes32"
        }
      ],
      "name": "recordVersions",
      "outputs": [
        {
          "internalType": "uint64",
          "name": "",
          "type": "uint64"
        }
      ],
      "stateMutability": "view",
      "type": "function"
    },
    {
      "inputs": [
        {
          "internalType": "bytes32",
          "name": "node",
          "type": "bytes32"
        },
        {
          "internalType": "uint256",
          "name": "contentType",
          "type": "uint256"
        },
        {
          "internalType": "bytes",
          "name": "data",
          "type": "bytes"
        }
      ],
      "name": "setABI",
      "outputs": [],
      "stateMutability": "nonpayable",
      "type": "function"
    },
    {
      "inputs": [
        {
          "internalType": "bytes32",
          "name": "node",
          "type": "bytes32"
        },
        {
          "internalType": "uint256",
          "name": "coinType",
          "type": "uint256"
        },
        {
          "internalType": "bytes",
          "name": "a",
          "type": "bytes"
        }
      ],
      "name": "setAddr",
      "outputs": [],
      "stateMutability": "nonpayable",
      "type": "function"
    },
    {
      "inputs": [
        {
          "internalType": "bytes32",
          "name": "node",
          "type": "bytes32"
        },
        {
          "internalType": "address",
          "name": "a",
          "type": "address"
        }
      ],
      "name": "setAddr",
      "outputs": [],
      "stateMutability": "nonpayable",
      "type": "function"
    },
    {
      "inputs": [
        {
          "internalType": "address",
          "name": "operator",
          "type": "address"
        },
        {
          "internalType": "bool",
          "name": "approved",
          "type": "bool"
        }
      ],
      "name": "setApprovalForAll",
      "outputs": [],
      "stateMutability": "nonpayable",
      "type": "function"
    },
    {
      "inputs": [
        {
          "internalType": "bytes32",
          "name": "node",
          "type": "bytes32"
        },
        {
          "internalType": "bytes",
          "name": "hash",
          "type": "bytes"
        }
      ],
      "name": "setContenthash",
      "outputs": [],
      "stateMutability": "nonpayable",
      "type": "function"
    },
    {
      "inputs": [
        {
          "internalType": "bytes32",
          "name": "node",
          "type": "bytes32"
        },
        {
          "internalType": "bytes4",
          "name": "interfaceID",
          "type": "bytes4"
        },
        {
          "internalType": "address",
          "name": "implementer",
          "type": "address"
        }
      ],
      "name": "setInterface",
      "outputs": [],
      "stateMutability": "nonpayable",
      "type": "function"
    },
    {
      "inputs": [
        {
          "internalType": "bytes32",
          "name": "node",
          "type": "bytes32"
        },
        {
          "internalType": "string",
          "name": "newName",
          "type": "string"
        }
      ],
      "name": "setName",
      "outputs": [],
      "stateMutability": "nonpayable",
      "type": "function"
    },
    {
      "inputs": [
        {
          "internalType": "bytes32",
          "name": "node",
          "type": "bytes32"
        },
        {
          "internalType": "bytes32",
          "name": "x",
          "type": "bytes32"
        },
        {
          "internalType": "bytes32",
          "name": "y",
          "type": "bytes32"
        }
      ],
      "name": "setPubkey",
      "outputs": [],
      "stateMutability": "nonpayable",
      "type": "function"
    },
    {
      "inputs": [
        {
          "internalType": "bytes32",
          "name": "node",
          "type": "bytes32"
        },
        {
          "internalType": "string",
          "name": "key",
          "type": "string"
        },
        {
          "internalType": "string",
          "name": "value",
          "type": "string"
        }
      ],
      "name": "setText",
      "outputs": [],
      "stateMutability": "nonpayable",
      "type": "function"
    },
    {
      "inputs": [
        {
          "internalType": "bytes4",
          "name": "interfaceID",
          "type": "bytes4"
        }
      ],
      "name": "supportsInterface",
      "outputs": [
        {
          "internalType": "bool",
          "name": "",
          "type": "bool"
        }
      ],
      "stateMutability": "view",
      "type": "function"
    },
    {
      "inputs": [
        {
          "internalType": "bytes32",
          "name": "node",
          "type": "bytes32"
        },
        {
          "internalType": "string",
          "name": "key",
          "type": "string"
        }
      ],
      "name": "text",
      "outputs": [
        {
          "internalType": "string",
          "name": "",
          "type": "string"
        }
      ],
      "stateMutability": "view",
      "type": "function"
    }
  ],
  "transactionHash": "0xbdb34d40e7a69f467195099f1afd5700ef3e325bd7e9e1312d845ea88e347f26",
  "args": [
    "0x6db68f1cE77C4E9Db9A2043E4Bc7E47Ac62E4e30",
    "0xE0f911825a48699EA37DB10Cc1333C377Eb6eD31",
    "0x029B51E447b362E4Ab7749e7c1b3f1E4F4d29B57",
    "0x90e3C57e2FFf30f353cf2e0c6B908E70aC2Aa9ce"
  ],
  "numDeployments": 3,
  "solcInputHash": "a6cd16260d926bcc2479c105f616fbf0",
  "bytecode": "0x6101006040523480156200001257600080fd5b50604051620026193803806200261983398101604081905262000035916200017a565b6040516302571be360e01b81527f91d1777781884d03a6757a803996e38de2a42967fb37eeaca72729271025a9e26004820152849033906000906001600160a01b038416906302571be390602401602060405180830381865afa158015620000a1573d6000803e3d6000fd5b505050506040513d601f19601f82011682018060405250810190620000c79190620001e2565b604051630f41a04d60e11b81526001600160a01b03848116600483015291925090821690631e83409a906024016020604051808303816000875af115801562000114573d6000803e3d6000fd5b505050506040513d601f19601f820116820180604052508101906200013a919062000209565b5050506001600160a01b039485166080525091831660a052821660c0521660e05262000223565b6001600160a01b03811681146200017757600080fd5b50565b600080600080608085870312156200019157600080fd5b84516200019e8162000161565b6020860151909450620001b18162000161565b6040860151909350620001c48162000161565b6060860151909250620001d78162000161565b939692955090935050565b600060208284031215620001f557600080fd5b8151620002028162000161565b9392505050565b6000602082840312156200021c57600080fd5b5051919050565b60805160a05160c05160e0516123b56200026460003960006113330152600061130101526000818161140b01526114710152600061139401526123b56000f3fe608060405234801561001057600080fd5b50600436106101a35760003560e01c80638b95dd71116100ee578063c869023311610097578063e32954eb11610071578063e32954eb14610435578063e59d895d14610448578063e985e9c51461045b578063f1cb7e061461049757600080fd5b8063c869023314610386578063d5fa2b00146103df578063d700ff33146103f257600080fd5b8063a9784b3e116100c8578063a9784b3e1461030f578063ac9650d814610353578063bc1c58d11461037357600080fd5b80638b95dd71146102d6578063a22cb465146102e9578063a4b91a01146102fc57600080fd5b80633603d75811610150578063623195b01161012a578063623195b01461029d578063691f3431146102b057806377372213146102c357600080fd5b80633603d758146102575780633b3b57de1461026a57806359d1d43c1461027d57600080fd5b80632203ab56116101815780632203ab561461021057806329cd62ea14610231578063304e6ade1461024457600080fd5b806301ffc9a7146101a857806310f13a8c146101d0578063124a319c146101e5575b600080fd5b6101bb6101b63660046119c3565b6104aa565b60405190151581526020015b60405180910390f35b6101e36101de366004611a20565b6104bb565b005b6101f86101f3366004611a9a565b610588565b6040516001600160a01b0390911681526020016101c7565b61022361021e366004611ac6565b610834565b6040516101c7929190611b38565b6101e361023f366004611b51565b61096b565b6101e3610252366004611b7d565b610a06565b6101e3610265366004611bc9565b610a82565b6101f8610278366004611bc9565b610b25565b61029061028b366004611b7d565b610b57565b6040516101c79190611be2565b6101e36102ab366004611bf5565b610c37565b6102906102be366004611bc9565b610cd4565b6101e36102d1366004611b7d565b610d93565b6101e36102e4366004611c5e565b610e0f565b6101e36102f7366004611d4a565b610eef565b6101e361030a366004611d76565b610fde565b6101bb61031d366004611db4565b6001600160a01b039283166000908152600960209081526040808320948352938152838220929094168152925290205460ff1690565b610366610361366004611e3b565b6110ab565b6040516101c79190611e7d565b610290610381366004611bc9565b6110b9565b6103ca610394366004611bc9565b6000818152602081815260408083205467ffffffffffffffff168352600682528083209383529290522080546001909101549091565b604080519283526020830191909152016101c7565b6101e36103ed366004611edf565b6110f3565b61041c610400366004611bc9565b60006020819052908152604090205467ffffffffffffffff1681565b60405167ffffffffffffffff90911681526020016101c7565b610366610443366004611f0f565b61111a565b6101e3610456366004611f4e565b61112f565b6101bb610469366004611f83565b6001600160a01b03918216600090815260086020908152604080832093909416825291909152205460ff1690565b6102906104a5366004611ac6565b6111ee565b60006104b5826112b6565b92915050565b846104c5816112f4565b6104ce57600080fd5b6000868152602081815260408083205467ffffffffffffffff168352600782528083208984529091529081902090518491849161050e9089908990611fb1565b90815260200160405180910390209182610529929190612049565b50848460405161053a929190611fb1565b6040518091039020867f448bc014f1536726cf8d54ff3d6481ed3cbc683c2591ca204274009afa09b1a1878787876040516105789493929190612132565b60405180910390a3505050505050565b6000828152602081815260408083205467ffffffffffffffff1683526004825280832085845282528083206001600160e01b0319851684529091528120546001600160a01b031680156105dc5790506104b5565b60006105e785610b25565b90506001600160a01b038116610602576000925050506104b5565b6040516301ffc9a760e01b602482015260009081906001600160a01b0384169060440160408051601f198184030181529181526020820180517bffffffffffffffffffffffffffffffffffffffffffffffffffffffff166301ffc9a760e01b1790525161066f9190612164565b600060405180830381855afa9150503d80600081146106aa576040519150601f19603f3d011682016040523d82523d6000602084013e6106af565b606091505b50915091508115806106c2575060208151105b80610704575080601f815181106106db576106db612180565b01602001517fff0000000000000000000000000000000000000000000000000000000000000016155b156107165760009450505050506104b5565b6040516001600160e01b0319871660248201526001600160a01b0384169060440160408051601f198184030181529181526020820180517bffffffffffffffffffffffffffffffffffffffffffffffffffffffff166301ffc9a760e01b179052516107819190612164565b600060405180830381855afa9150503d80600081146107bc576040519150601f19603f3d011682016040523d82523d6000602084013e6107c1565b606091505b5090925090508115806107d5575060208151105b80610817575080601f815181106107ee576107ee612180565b01602001517fff0000000000000000000000000000000000000000000000000000000000000016155b156108295760009450505050506104b5565b509095945050505050565b6000828152602081815260408083205467ffffffffffffffff168352600180835281842086855290925282206060915b84811161094b578085161580159061089457506000818152602083905260408120805461089090611fc1565b9050115b1561094357808260008381526020019081526020016000208080546108b890611fc1565b80601f01602080910402602001604051908101604052809291908181526020018280546108e490611fc1565b80156109315780601f1061090657610100808354040283529160200191610931565b820191906000526020600020905b81548152906001019060200180831161091457829003601f168201915b50505050509050935093505050610964565b60011b610864565b5060006040518060200160405280600081525092509250505b9250929050565b82610975816112f4565b61097e57600080fd5b604080518082018252848152602080820185815260008881528083528481205467ffffffffffffffff1681526006835284812089825283528490209251835551600190920191909155815185815290810184905285917f1d6f5e03d3f63eb58751986629a5439baee5079ff04f345becb66e23eb154e4691015b60405180910390a250505050565b82610a10816112f4565b610a1957600080fd5b6000848152602081815260408083205467ffffffffffffffff168352600382528083208784529091529020610a4f838583612049565b50837fe379c1624ed7e714cc0937528a32359d69d5281337765313dba4e081b72d757884846040516109f8929190612196565b80610a8c816112f4565b610a9557600080fd5b6000828152602081905260408120805467ffffffffffffffff1691610ab9836121c0565b82546101009290920a67ffffffffffffffff818102199093169183160217909155600084815260208181526040918290205491519190921681528492507fc6621ccb8f3f5a04bb6502154b2caf6adf5983fe76dfef1cfc9c42e3579db444910160405180910390a25050565b600080610b3383603c6111ee565b90508051600003610b475750600092915050565b610b508161155b565b9392505050565b6000838152602081815260408083205467ffffffffffffffff1683526007825280832086845290915290819020905160609190610b979085908590611fb1565b90815260200160405180910390208054610bb090611fc1565b80601f0160208091040260200160405190810160405280929190818152602001828054610bdc90611fc1565b8015610c295780601f10610bfe57610100808354040283529160200191610c29565b820191906000526020600020905b815481529060010190602001808311610c0c57829003601f168201915b505050505090509392505050565b83610c41816112f4565b610c4a57600080fd5b83610c566001826121e7565b1615610c6157600080fd5b6000858152602081815260408083205467ffffffffffffffff1683526001825280832088845282528083208784529091529020610c9f838583612049565b50604051849086907faa121bbeef5f32f5961a2a28966e769023910fc9479059ee3495d4c1a696efe390600090a35050505050565b6000818152602081815260408083205467ffffffffffffffff168352600582528083208484529091529020805460609190610d0e90611fc1565b80601f0160208091040260200160405190810160405280929190818152602001828054610d3a90611fc1565b8015610d875780601f10610d5c57610100808354040283529160200191610d87565b820191906000526020600020905b815481529060010190602001808311610d6a57829003601f168201915b50505050509050919050565b82610d9d816112f4565b610da657600080fd5b6000848152602081815260408083205467ffffffffffffffff168352600582528083208784529091529020610ddc838583612049565b50837fb7d29e911041e8d9b843369e890bcb72c9388692ba48b65ac54e7214c4c348f784846040516109f8929190612196565b82610e19816112f4565b610e2257600080fd5b837f65412581168e88a1e60c6459d7f44ae83ad0832e670826c05a4e2476b57af7528484604051610e54929190611b38565b60405180910390a2603c8303610eab57837f52d7d861f09ab3d26239d492e8968629f95e9e318cf0b73bfddc441522a15fd2610e8f8461155b565b6040516001600160a01b03909116815260200160405180910390a25b6000848152602081815260408083205467ffffffffffffffff1683526002825280832087845282528083208684529091529020610ee883826121fa565b5050505050565b6001600160a01b0382163303610f725760405162461bcd60e51b815260206004820152602960248201527f455243313135353a2073657474696e6720617070726f76616c2073746174757360448201527f20666f722073656c66000000000000000000000000000000000000000000000060648201526084015b60405180910390fd5b3360008181526008602090815260408083206001600160a01b03871680855290835292819020805460ff191686151590811790915590519081529192917f17307eab39ab6107e8899845ad3d59bd9653f200f220920489ca2b5937696c31910160405180910390a35050565b6001600160a01b03821633036110365760405162461bcd60e51b815260206004820181905260248201527f53657474696e672064656c65676174652073746174757320666f722073656c666044820152606401610f69565b33600081815260096020908152604080832087845282528083206001600160a01b03871680855290835292819020805460ff191686151590811790915590519384529286917ff0ddb3b04746704017f9aa8bd728fcc2c1d11675041205350018915f5e4750a0910160405180910390a4505050565b6060610b5060008484611583565b6000818152602081815260408083205467ffffffffffffffff168352600382528083208484529091529020805460609190610d0e90611fc1565b816110fd816112f4565b61110657600080fd5b61111583603c6102e48561175c565b505050565b6060611127848484611583565b949350505050565b82611139816112f4565b61114257600080fd5b6000848152602081815260408083205467ffffffffffffffff1683526004825280832087845282528083206001600160e01b031987168085529083529281902080547fffffffffffffffffffffffff0000000000000000000000000000000000000000166001600160a01b038716908117909155905190815286917f7c69f06bea0bdef565b709e93a147836b0063ba2dd89f02d0b7e8d931e6a6daa910160405180910390a350505050565b6000828152602081815260408083205467ffffffffffffffff168352600282528083208584528252808320848452909152902080546060919061123090611fc1565b80601f016020809104026020016040519081016040528092919081815260200182805461125c90611fc1565b80156112a95780601f1061127e576101008083540402835291602001916112a9565b820191906000526020600020905b81548152906001019060200180831161128c57829003601f168201915b5050505050905092915050565b60006001600160e01b031982167f59d1d43c0000000000000000000000000000000000000000000000000000000014806104b557506104b582611795565b6000336001600160a01b037f00000000000000000000000000000000000000000000000000000000000000001614806113555750336001600160a01b037f000000000000000000000000000000000000000000000000000000000000000016145b1561136257506001919050565b6040517f02571be3000000000000000000000000000000000000000000000000000000008152600481018390526000907f00000000000000000000000000000000000000000000000000000000000000006001600160a01b0316906302571be390602401602060405180830381865afa1580156113e3573d6000803e3d6000fd5b505050506040513d601f19601f8201168201806040525081019061140791906122ba565b90507f00000000000000000000000000000000000000000000000000000000000000006001600160a01b0316816001600160a01b0316036114e7576040517f6352211e000000000000000000000000000000000000000000000000000000008152600481018490527f00000000000000000000000000000000000000000000000000000000000000006001600160a01b031690636352211e90602401602060405180830381865afa1580156114c0573d6000803e3d6000fd5b505050506040513d601f19601f820116820180604052508101906114e491906122ba565b90505b6001600160a01b03811633148061152157506001600160a01b038116600090815260086020908152604080832033845290915290205460ff165b80610b5057506001600160a01b0381166000908152600960209081526040808320868452825280832033845290915290205460ff16610b50565b6000815160141461156b57600080fd5b50602001516c01000000000000000000000000900490565b60608167ffffffffffffffff81111561159e5761159e611c48565b6040519080825280602002602001820160405280156115d157816020015b60608152602001906001900390816115bc5790505b50905060005b8281101561175457841561169c5760008484838181106115f9576115f9612180565b905060200281019061160b91906122d7565b61161a9160249160049161231e565b61162391612348565b905085811461169a5760405162461bcd60e51b815260206004820152603460248201527f6d756c746963616c6c3a20416c6c207265636f726473206d757374206861766560448201527f2061206d61746368696e67206e616d65686173680000000000000000000000006064820152608401610f69565b505b600080308686858181106116b2576116b2612180565b90506020028101906116c491906122d7565b6040516116d2929190611fb1565b600060405180830381855af49150503d806000811461170d576040519150601f19603f3d011682016040523d82523d6000602084013e611712565b606091505b50915091508161172157600080fd5b8084848151811061173457611734612180565b60200260200101819052505050808061174c90612366565b9150506115d7565b509392505050565b6040805160148082528183019092526060916020820181803683375050506c010000000000000000000000009290920260208301525090565b60006001600160e01b031982167fc86902330000000000000000000000000000000000000000000000000000000014806104b557506104b58260006001600160e01b031982167f691f34310000000000000000000000000000000000000000000000000000000014806104b557506104b58260006001600160e01b031982167f124a319c0000000000000000000000000000000000000000000000000000000014806104b557506104b58260006001600160e01b031982167fbc1c58d10000000000000000000000000000000000000000000000000000000014806104b557506104b58260006001600160e01b031982167f3b3b57de0000000000000000000000000000000000000000000000000000000014806118dc57506001600160e01b031982167ff1cb7e0600000000000000000000000000000000000000000000000000000000145b806104b557506104b58260006001600160e01b031982167f2203ab560000000000000000000000000000000000000000000000000000000014806104b557506104b58260006001600160e01b031982167fd700ff330000000000000000000000000000000000000000000000000000000014806104b557506104b58260006001600160e01b031982167f4fbf04330000000000000000000000000000000000000000000000000000000014806104b557506301ffc9a760e01b6001600160e01b03198316146104b5565b80356001600160e01b0319811681146119be57600080fd5b919050565b6000602082840312156119d557600080fd5b610b50826119a6565b60008083601f8401126119f057600080fd5b50813567ffffffffffffffff811115611a0857600080fd5b60208301915083602082850101111561096457600080fd5b600080600080600060608688031215611a3857600080fd5b85359450602086013567ffffffffffffffff80821115611a5757600080fd5b611a6389838a016119de565b90965094506040880135915080821115611a7c57600080fd5b50611a89888289016119de565b969995985093965092949392505050565b60008060408385031215611aad57600080fd5b82359150611abd602084016119a6565b90509250929050565b60008060408385031215611ad957600080fd5b50508035926020909101359150565b60005b83811015611b03578181015183820152602001611aeb565b50506000910152565b60008151808452611b24816020860160208601611ae8565b601f01601f19169290920160200192915050565b8281526040602082015260006111276040830184611b0c565b600080600060608486031215611b6657600080fd5b505081359360208301359350604090920135919050565b600080600060408486031215611b9257600080fd5b83359250602084013567ffffffffffffffff811115611bb057600080fd5b611bbc868287016119de565b9497909650939450505050565b600060208284031215611bdb57600080fd5b5035919050565b602081526000610b506020830184611b0c565b60008060008060608587031215611c0b57600080fd5b8435935060208501359250604085013567ffffffffffffffff811115611c3057600080fd5b611c3c878288016119de565b95989497509550505050565b634e487b7160e01b600052604160045260246000fd5b600080600060608486031215611c7357600080fd5b8335925060208401359150604084013567ffffffffffffffff80821115611c9957600080fd5b818601915086601f830112611cad57600080fd5b813581811115611cbf57611cbf611c48565b604051601f8201601f19908116603f01168101908382118183101715611ce757611ce7611c48565b81604052828152896020848701011115611d0057600080fd5b8260208601602083013760006020848301015280955050505050509250925092565b6001600160a01b0381168114611d3757600080fd5b50565b803580151581146119be57600080fd5b60008060408385031215611d5d57600080fd5b8235611d6881611d22565b9150611abd60208401611d3a565b600080600060608486031215611d8b57600080fd5b833592506020840135611d9d81611d22565b9150611dab60408501611d3a565b90509250925092565b600080600060608486031215611dc957600080fd5b8335611dd481611d22565b9250602084013591506040840135611deb81611d22565b809150509250925092565b60008083601f840112611e0857600080fd5b50813567ffffffffffffffff811115611e2057600080fd5b6020830191508360208260051b850101111561096457600080fd5b60008060208385031215611e4e57600080fd5b823567ffffffffffffffff811115611e6557600080fd5b611e7185828601611df6565b90969095509350505050565b6000602080830181845280855180835260408601915060408160051b870101925083870160005b82811015611ed257603f19888603018452611ec0858351611b0c565b94509285019290850190600101611ea4565b5092979650505050505050565b60008060408385031215611ef257600080fd5b823591506020830135611f0481611d22565b809150509250929050565b600080600060408486031215611f2457600080fd5b83359250602084013567ffffffffffffffff811115611f4257600080fd5b611bbc86828701611df6565b600080600060608486031215611f6357600080fd5b83359250611f73602085016119a6565b91506040840135611deb81611d22565b60008060408385031215611f9657600080fd5b8235611fa181611d22565b91506020830135611f0481611d22565b8183823760009101908152919050565b600181811c90821680611fd557607f821691505b602082108103611ff557634e487b7160e01b600052602260045260246000fd5b50919050565b601f82111561111557600081815260208120601f850160051c810160208610156120225750805b601f850160051c820191505b818110156120415782815560010161202e565b505050505050565b67ffffffffffffffff83111561206157612061611c48565b6120758361206f8354611fc1565b83611ffb565b6000601f8411600181146120a957600085156120915750838201355b600019600387901b1c1916600186901b178355610ee8565b600083815260209020601f19861690835b828110156120da57868501358255602094850194600190920191016120ba565b50868210156120f75760001960f88860031b161c19848701351681555b505060018560011b0183555050505050565b81835281816020850137506000828201602090810191909152601f909101601f19169091010190565b604081526000612146604083018688612109565b8281036020840152612159818587612109565b979650505050505050565b60008251612176818460208701611ae8565b9190910192915050565b634e487b7160e01b600052603260045260246000fd5b602081526000611127602083018486612109565b634e487b7160e01b600052601160045260246000fd5b600067ffffffffffffffff8083168181036121dd576121dd6121aa565b6001019392505050565b818103818111156104b5576104b56121aa565b815167ffffffffffffffff81111561221457612214611c48565b612228816122228454611fc1565b84611ffb565b602080601f83116001811461225d57600084156122455750858301515b600019600386901b1c1916600185901b178555612041565b600085815260208120601f198616915b8281101561228c5788860151825594840194600190910190840161226d565b50858210156122aa5787850151600019600388901b60f8161c191681555b5050505050600190811b01905550565b6000602082840312156122cc57600080fd5b8151610b5081611d22565b6000808335601e198436030181126122ee57600080fd5b83018035915067ffffffffffffffff82111561230957600080fd5b60200191503681900382131561096457600080fd5b6000808585111561232e57600080fd5b8386111561233b57600080fd5b5050820193919092039150565b803560208310156104b557600019602084900360031b1b1692915050565b600060018201612378576123786121aa565b506001019056fea2646970667358221220d318e3268b651365b9aab8fb4908ac56e7ab43b82b52913fc9922bad35fbf0f364736f6c63430008110033",
  "devdoc": {
    "kind": "dev",
    "methods": {
      "ABI(bytes32,uint256)": {
        "params": {
          "contentTypes": "A bitwise OR of the ABI formats accepted by the caller.",
          "node": "The INS node to query"
        },
        "returns": {
          "_0": "contentType The content type of the return value",
          "_1": "data The ABI data"
        }
      },
      "addr(bytes32)": {
        "params": {
          "node": "The INS node to query."
        },
        "returns": {
          "_0": "The associated address."
        }
      },
      "approve(bytes32,address,bool)": {
        "details": "Approve a delegate to be able to updated records on a node."
      },
      "clearRecords(bytes32)": {
        "params": {
          "node": "The node to update."
        }
      },
      "contenthash(bytes32)": {
        "params": {
          "node": "The INS node to query."
        },
        "returns": {
          "_0": "The associated contenthash."
        }
      },
      "interfaceImplementer(bytes32,bytes4)": {
        "params": {
          "interfaceID": "The EIP 165 interface ID to check for.",
          "node": "The INS node to query."
        },
        "returns": {
          "_0": "The address that implements this interface, or 0 if the interface is unsupported."
        }
      },
      "isApprovedFor(address,bytes32,address)": {
        "details": "Check to see if the delegate has been approved by the owner for the node."
      },
      "isApprovedForAll(address,address)": {
        "details": "See {IERC1155-isApprovedForAll}."
      },
      "name(bytes32)": {
        "params": {
          "node": "The INS node to query."
        },
        "returns": {
          "_0": "The associated name."
        }
      },
      "pubkey(bytes32)": {
        "params": {
          "node": "The INS node to query"
        },
        "returns": {
          "x": "The X coordinate of the curve point for the public key.",
          "y": "The Y coordinate of the curve point for the public key."
        }
      },
      "setABI(bytes32,uint256,bytes)": {
        "params": {
          "contentType": "The content type of the ABI",
          "data": "The ABI data.",
          "node": "The node to update."
        }
      },
      "setAddr(bytes32,address)": {
        "params": {
          "a": "The address to set.",
          "node": "The node to update."
        }
      },
      "setApprovalForAll(address,bool)": {
        "details": "See {IERC1155-setApprovalForAll}."
      },
      "setContenthash(bytes32,bytes)": {
        "params": {
          "hash": "The contenthash to set",
          "node": "The node to update."
        }
      },
      "setInterface(bytes32,bytes4,address)": {
        "params": {
          "implementer": "The address of a contract that implements this interface for this node.",
          "interfaceID": "The EIP 165 interface ID.",
          "node": "The node to update."
        }
      },
      "setName(bytes32,string)": {
        "params": {
          "node": "The node to update."
        }
      },
      "setPubkey(bytes32,bytes32,bytes32)": {
        "params": {
          "node": "The INS node to query",
          "x": "the X coordinate of the curve point for the public key.",
          "y": "the Y coordinate of the curve point for the public key."
        }
      },
      "setText(bytes32,string,string)": {
        "params": {
          "key": "The key to set.",
          "node": "The node to update.",
          "value": "The text data value to set."
        }
      },
      "text(bytes32,string)": {
        "params": {
          "key": "The text data key to query.",
          "node": "The INS node to query."
        },
        "returns": {
          "_0": "The associated text data."
        }
      }
    },
    "version": 1
  },
  "userdoc": {
    "kind": "user",
    "methods": {
      "ABI(bytes32,uint256)": {
        "notice": "Returns the ABI associated with an INS node. Defined in EIP205."
      },
      "addr(bytes32)": {
        "notice": "Returns the address associated with an INS node."
      },
      "clearRecords(bytes32)": {
        "notice": "Increments the record version associated with an INS node. May only be called by the owner of that node in the INS registry."
      },
      "contenthash(bytes32)": {
        "notice": "Returns the contenthash associated with an INS node."
      },
      "interfaceImplementer(bytes32,bytes4)": {
        "notice": "Returns the address of a contract that implements the specified interface for this name. If an implementer has not been set for this interfaceID and name, the resolver will query the contract at `addr()`. If `addr()` is set, a contract exists at that address, and that contract implements EIP165 and returns `true` for the specified interfaceID, its address will be returned."
      },
      "name(bytes32)": {
        "notice": "Returns the name associated with an INS node, for reverse records. Defined in EIP181."
      },
      "pubkey(bytes32)": {
        "notice": "Returns the SECP256k1 public key associated with an INS node. Defined in EIP 619."
      },
      "setABI(bytes32,uint256,bytes)": {
        "notice": "Sets the ABI associated with an INS node. Nodes may have one ABI of each content type. To remove an ABI, set it to the empty string."
      },
      "setAddr(bytes32,address)": {
        "notice": "Sets the address associated with an INS node. May only be called by the owner of that node in the INS registry."
      },
      "setContenthash(bytes32,bytes)": {
        "notice": "Sets the contenthash associated with an INS node. May only be called by the owner of that node in the INS registry."
      },
      "setInterface(bytes32,bytes4,address)": {
        "notice": "Sets an interface associated with a name. Setting the address to 0 restores the default behaviour of querying the contract at `addr()` for interface support."
      },
      "setName(bytes32,string)": {
        "notice": "Sets the name associated with an INS node, for reverse records. May only be called by the owner of that node in the INS registry."
      },
      "setPubkey(bytes32,bytes32,bytes32)": {
        "notice": "Sets the SECP256k1 public key associated with an INS node."
      },
      "setText(bytes32,string,string)": {
        "notice": "Sets the text data associated with an INS node and key. May only be called by the owner of that node in the INS registry."
      },
      "text(bytes32,string)": {
        "notice": "Returns the text data associated with an INS node and key."
      }
    },
    "notice": "A simple resolver anyone can use; only allows the owner of a node to set its address.",
    "version": 1
  },
  "storageLayout": {
    "storage": [
      {
        "astId": 5707,
        "contract": "src/resolvers/PublicResolver.sol:PublicResolver",
        "label": "recordVersions",
        "offset": 0,
        "slot": "0",
        "type": "t_mapping(t_bytes32,t_uint64)"
      },
      {
        "astId": 5786,
        "contract": "src/resolvers/PublicResolver.sol:PublicResolver",
        "label": "versionable_abis",
        "offset": 0,
        "slot": "1",
        "type": "t_mapping(t_uint64,t_mapping(t_bytes32,t_mapping(t_uint256,t_bytes_storage)))"
      },
      {
        "astId": 5940,
        "contract": "src/resolvers/PublicResolver.sol:PublicResolver",
        "label": "versionable_addresses",
        "offset": 0,
        "slot": "2",
        "type": "t_mapping(t_uint64,t_mapping(t_bytes32,t_mapping(t_uint256,t_bytes_storage)))"
      },
      {
        "astId": 6131,
        "contract": "src/resolvers/PublicResolver.sol:PublicResolver",
        "label": "versionable_hashes",
        "offset": 0,
        "slot": "3",
        "type": "t_mapping(t_uint64,t_mapping(t_bytes32,t_bytes_storage))"
      },
      {
        "astId": 6455,
        "contract": "src/resolvers/PublicResolver.sol:PublicResolver",
        "label": "versionable_interfaces",
        "offset": 0,
        "slot": "4",
        "type": "t_mapping(t_uint64,t_mapping(t_bytes32,t_mapping(t_bytes4,t_address)))"
      },
      {
        "astId": 6647,
        "contract": "src/resolvers/PublicResolver.sol:PublicResolver",
        "label": "versionable_names",
        "offset": 0,
        "slot": "5",
        "type": "t_mapping(t_uint64,t_mapping(t_bytes32,t_string_storage))"
      },
      {
        "astId": 6734,
        "contract": "src/resolvers/PublicResolver.sol:PublicResolver",
        "label": "versionable_pubkeys",
        "offset": 0,
        "slot": "6",
        "type": "t_mapping(t_uint64,t_mapping(t_bytes32,t_struct(PublicKey)6727_storage))"
      },
      {
        "astId": 6837,
        "contract": "src/resolvers/PublicResolver.sol:PublicResolver",
        "label": "versionable_texts",
        "offset": 0,
        "slot": "7",
        "type": "t_mapping(t_uint64,t_mapping(t_bytes32,t_mapping(t_string_memory_ptr,t_string_storage)))"
      },
      {
        "astId": 5237,
        "contract": "src/resolvers/PublicResolver.sol:PublicResolver",
        "label": "_operatorApprovals",
        "offset": 0,
        "slot": "8",
        "type": "t_mapping(t_address,t_mapping(t_address,t_bool))"
      },
      {
        "astId": 5246,
        "contract": "src/resolvers/PublicResolver.sol:PublicResolver",
        "label": "_tokenApprovals",
        "offset": 0,
        "slot": "9",
        "type": "t_mapping(t_address,t_mapping(t_bytes32,t_mapping(t_address,t_bool)))"
      }
    ],
    "types": {
      "t_address": {
        "encoding": "inplace",
        "label": "address",
        "numberOfBytes": "20"
      },
      "t_bool": {
        "encoding": "inplace",
        "label": "bool",
        "numberOfBytes": "1"
      },
      "t_bytes32": {
        "encoding": "inplace",
        "label": "bytes32",
        "numberOfBytes": "32"
      },
      "t_bytes4": {
        "encoding": "inplace",
        "label": "bytes4",
        "numberOfBytes": "4"
      },
      "t_bytes_storage": {
        "encoding": "bytes",
        "label": "bytes",
        "numberOfBytes": "32"
      },
      "t_mapping(t_address,t_bool)": {
        "encoding": "mapping",
        "key": "t_address",
        "label": "mapping(address => bool)",
        "numberOfBytes": "32",
        "value": "t_bool"
      },
      "t_mapping(t_address,t_mapping(t_address,t_bool))": {
        "encoding": "mapping",
        "key": "t_address",
        "label": "mapping(address => mapping(address => bool))",
        "numberOfBytes": "32",
        "value": "t_mapping(t_address,t_bool)"
      },
      "t_mapping(t_address,t_mapping(t_bytes32,t_mapping(t_address,t_bool)))": {
        "encoding": "mapping",
        "key": "t_address",
        "label": "mapping(address => mapping(bytes32 => mapping(address => bool)))",
        "numberOfBytes": "32",
        "value": "t_mapping(t_bytes32,t_mapping(t_address,t_bool))"
      },
      "t_mapping(t_bytes32,t_bytes_storage)": {
        "encoding": "mapping",
        "key": "t_bytes32",
        "label": "mapping(bytes32 => bytes)",
        "numberOfBytes": "32",
        "value": "t_bytes_storage"
      },
      "t_mapping(t_bytes32,t_mapping(t_address,t_bool))": {
        "encoding": "mapping",
        "key": "t_bytes32",
        "label": "mapping(bytes32 => mapping(address => bool))",
        "numberOfBytes": "32",
        "value": "t_mapping(t_address,t_bool)"
      },
      "t_mapping(t_bytes32,t_mapping(t_bytes4,t_address))": {
        "encoding": "mapping",
        "key": "t_bytes32",
        "label": "mapping(bytes32 => mapping(bytes4 => address))",
        "numberOfBytes": "32",
        "value": "t_mapping(t_bytes4,t_address)"
      },
      "t_mapping(t_bytes32,t_mapping(t_string_memory_ptr,t_string_storage))": {
        "encoding": "mapping",
        "key": "t_bytes32",
        "label": "mapping(bytes32 => mapping(string => string))",
        "numberOfBytes": "32",
        "value": "t_mapping(t_string_memory_ptr,t_string_storage)"
      },
      "t_mapping(t_bytes32,t_mapping(t_uint256,t_bytes_storage))": {
        "encoding": "mapping",
        "key": "t_bytes32",
        "label": "mapping(bytes32 => mapping(uint256 => bytes))",
        "numberOfBytes": "32",
        "value": "t_mapping(t_uint256,t_bytes_storage)"
      },
      "t_mapping(t_bytes32,t_string_storage)": {
        "encoding": "mapping",
        "key": "t_bytes32",
        "label": "mapping(bytes32 => string)",
        "numberOfBytes": "32",
        "value": "t_string_storage"
      },
      "t_mapping(t_bytes32,t_struct(PublicKey)6727_storage)": {
        "encoding": "mapping",
        "key": "t_bytes32",
        "label": "mapping(bytes32 => struct PubkeyResolver.PublicKey)",
        "numberOfBytes": "32",
        "value": "t_struct(PublicKey)6727_storage"
      },
      "t_mapping(t_bytes32,t_uint64)": {
        "encoding": "mapping",
        "key": "t_bytes32",
        "label": "mapping(bytes32 => uint64)",
        "numberOfBytes": "32",
        "value": "t_uint64"
      },
      "t_mapping(t_bytes4,t_address)": {
        "encoding": "mapping",
        "key": "t_bytes4",
        "label": "mapping(bytes4 => address)",
        "numberOfBytes": "32",
        "value": "t_address"
      },
      "t_mapping(t_string_memory_ptr,t_string_storage)": {
        "encoding": "mapping",
        "key": "t_string_memory_ptr",
        "label": "mapping(string => string)",
        "numberOfBytes": "32",
        "value": "t_string_storage"
      },
      "t_mapping(t_uint256,t_bytes_storage)": {
        "encoding": "mapping",
        "key": "t_uint256",
        "label": "mapping(uint256 => bytes)",
        "numberOfBytes": "32",
        "value": "t_bytes_storage"
      },
      "t_mapping(t_uint64,t_mapping(t_bytes32,t_bytes_storage))": {
        "encoding": "mapping",
        "key": "t_uint64",
        "label": "mapping(uint64 => mapping(bytes32 => bytes))",
        "numberOfBytes": "32",
        "value": "t_mapping(t_bytes32,t_bytes_storage)"
      },
      "t_mapping(t_uint64,t_mapping(t_bytes32,t_mapping(t_bytes4,t_address)))": {
        "encoding": "mapping",
        "key": "t_uint64",
        "label": "mapping(uint64 => mapping(bytes32 => mapping(bytes4 => address)))",
        "numberOfBytes": "32",
        "value": "t_mapping(t_bytes32,t_mapping(t_bytes4,t_address))"
      },
      "t_mapping(t_uint64,t_mapping(t_bytes32,t_mapping(t_string_memory_ptr,t_string_storage)))": {
        "encoding": "mapping",
        "key": "t_uint64",
        "label": "mapping(uint64 => mapping(bytes32 => mapping(string => string)))",
        "numberOfBytes": "32",
        "value": "t_mapping(t_bytes32,t_mapping(t_string_memory_ptr,t_string_storage))"
      },
      "t_mapping(t_uint64,t_mapping(t_bytes32,t_mapping(t_uint256,t_bytes_storage)))": {
        "encoding": "mapping",
        "key": "t_uint64",
        "label": "mapping(uint64 => mapping(bytes32 => mapping(uint256 => bytes)))",
        "numberOfBytes": "32",
        "value": "t_mapping(t_bytes32,t_mapping(t_uint256,t_bytes_storage))"
      },
      "t_mapping(t_uint64,t_mapping(t_bytes32,t_string_storage))": {
        "encoding": "mapping",
        "key": "t_uint64",
        "label": "mapping(uint64 => mapping(bytes32 => string))",
        "numberOfBytes": "32",
        "value": "t_mapping(t_bytes32,t_string_storage)"
      },
      "t_mapping(t_uint64,t_mapping(t_bytes32,t_struct(PublicKey)6727_storage))": {
        "encoding": "mapping",
        "key": "t_uint64",
        "label": "mapping(uint64 => mapping(bytes32 => struct PubkeyResolver.PublicKey))",
        "numberOfBytes": "32",
        "value": "t_mapping(t_bytes32,t_struct(PublicKey)6727_storage)"
      },
      "t_string_memory_ptr": {
        "encoding": "bytes",
        "label": "string",
        "numberOfBytes": "32"
      },
      "t_string_storage": {
        "encoding": "bytes",
        "label": "string",
        "numberOfBytes": "32"
      },
      "t_struct(PublicKey)6727_storage": {
        "encoding": "inplace",
        "label": "struct PubkeyResolver.PublicKey",
        "members": [
          {
            "astId": 6724,
            "contract": "src/resolvers/PublicResolver.sol:PublicResolver",
            "label": "x",
            "offset": 0,
            "slot": "0",
            "type": "t_bytes32"
          },
          {
            "astId": 6726,
            "contract": "src/resolvers/PublicResolver.sol:PublicResolver",
            "label": "y",
            "offset": 0,
            "slot": "1",
            "type": "t_bytes32"
          }
        ],
        "numberOfBytes": "64"
      },
      "t_uint256": {
        "encoding": "inplace",
        "label": "uint256",
        "numberOfBytes": "32"
      },
      "t_uint64": {
        "encoding": "inplace",
        "label": "uint64",
        "numberOfBytes": "8"
      }
    }
  }
}