{
  "address": "0xf4D37966F78A0481c7aA28701100B18A8F99907A",
  "abi": [
    {
      "inputs": [
        {
          "internalType": "contract INS",
          "name": "_ins",
          "type": "address"
        }
      ],
      "stateMutability": "nonpayable",
      "type": "constructor"
    },
    {
      "anonymous": false,
      "inputs": [
        {
          "indexed": true,
          "internalType": "address",
          "name": "controller",
          "type": "address"
        },
        {
          "indexed": false,
          "internalType": "bool",
          "name": "enabled",
          "type": "bool"
        }
      ],
      "name": "ControllerChanged",
      "type": "event"
    },
    {
      "anonymous": false,
      "inputs": [
        {
          "indexed": true,
          "internalType": "contract NameResolver",
          "name": "resolver",
          "type": "address"
        }
      ],
      "name": "DefaultResolverChanged",
      "type": "event"
    },
    {
      "anonymous": false,
      "inputs": [
        {
          "indexed": true,
          "internalType": "address",
          "name": "previousOwner",
          "type": "address"
        },
        {
          "indexed": true,
          "internalType": "address",
          "name": "newOwner",
          "type": "address"
        }
      ],
      "name": "OwnershipTransferred",
      "type": "event"
    },
    {
      "anonymous": false,
      "inputs": [
        {
          "indexed": true,
          "internalType": "address",
          "name": "addr",
          "type": "address"
        },
        {
          "indexed": true,
          "internalType": "bytes32",
          "name": "node",
          "type": "bytes32"
        }
      ],
      "name": "ReverseClaimed",
      "type": "event"
    },
    {
      "inputs": [
        {
          "internalType": "address",
          "name": "owner",
          "type": "address"
        }
      ],
      "name": "claim",
      "outputs": [
        {
          "internalType": "bytes32",
          "name": "",
          "type": "bytes32"
        }
      ],
      "stateMutability": "nonpayable",
      "type": "function"
    },
    {
      "inputs": [
        {
          "internalType": "address",
          "name": "addr",
          "type": "address"
        },
        {
          "internalType": "address",
          "name": "owner",
          "type": "address"
        },
        {
          "internalType": "address",
          "name": "resolver",
          "type": "address"
        }
      ],
      "name": "claimForAddr",
      "outputs": [
        {
          "internalType": "bytes32",
          "name": "",
          "type": "bytes32"
        }
      ],
      "stateMutability": "nonpayable",
      "type": "function"
    },
    {
      "inputs": [
        {
          "internalType": "address",
          "name": "owner",
          "type": "address"
        },
        {
          "internalType": "address",
          "name": "resolver",
          "type": "address"
        }
      ],
      "name": "claimWithResolver",
      "outputs": [
        {
          "internalType": "bytes32",
          "name": "",
          "type": "bytes32"
        }
      ],
      "stateMutability": "nonpayable",
      "type": "function"
    },
    {
      "inputs": [
        {
          "internalType": "address",
          "name": "",
          "type": "address"
        }
      ],
      "name": "controllers",
      "outputs": [
        {
          "internalType": "bool",
          "name": "",
          "type": "bool"
        }
      ],
      "stateMutability": "view",
      "type": "function"
    },
    {
      "inputs": [],
      "name": "defaultResolver",
      "outputs": [
        {
          "internalType": "contract NameResolver",
          "name": "",
          "type": "address"
        }
      ],
      "stateMutability": "view",
      "type": "function"
    },
    {
      "inputs": [],
      "name": "ins",
      "outputs": [
        {
          "internalType": "contract INS",
          "name": "",
          "type": "address"
        }
      ],
      "stateMutability": "view",
      "type": "function"
    },
    {
      "inputs": [
        {
          "internalType": "address",
          "name": "addr",
          "type": "address"
        }
      ],
      "name": "node",
      "outputs": [
        {
          "internalType": "bytes32",
          "name": "",
          "type": "bytes32"
        }
      ],
      "stateMutability": "pure",
      "type": "function"
    },
    {
      "inputs": [],
      "name": "owner",
      "outputs": [
        {
          "internalType": "address",
          "name": "",
          "type": "address"
        }
      ],
      "stateMutability": "view",
      "type": "function"
    },
    {
      "inputs": [],
      "name": "renounceOwnership",
      "outputs": [],
      "stateMutability": "nonpayable",
      "type": "function"
    },
    {
      "inputs": [
        {
          "internalType": "address",
          "name": "controller",
          "type": "address"
        },
        {
          "internalType": "bool",
          "name": "enabled",
          "type": "bool"
        }
      ],
      "name": "setController",
      "outputs": [],
      "stateMutability": "nonpayable",
      "type": "function"
    },
    {
      "inputs": [
        {
          "internalType": "address",
          "name": "resolver",
          "type": "address"
        }
      ],
      "name": "setDefaultResolver",
      "outputs": [],
      "stateMutability": "nonpayable",
      "type": "function"
    },
    {
      "inputs": [
        {
          "internalType": "string",
          "name": "name",
          "type": "string"
        }
      ],
      "name": "setName",
      "outputs": [
        {
          "internalType": "bytes32",
          "name": "",
          "type": "bytes32"
        }
      ],
      "stateMutability": "nonpayable",
      "type": "function"
    },
    {
      "inputs": [
        {
          "internalType": "address",
          "name": "addr",
          "type": "address"
        },
        {
          "internalType": "address",
          "name": "owner",
          "type": "address"
        },
        {
          "internalType": "address",
          "name": "resolver",
          "type": "address"
        },
        {
          "internalType": "string",
          "name": "name",
          "type": "string"
        }
      ],
      "name": "setNameForAddr",
      "outputs": [
        {
          "internalType": "bytes32",
          "name": "",
          "type": "bytes32"
        }
      ],
      "stateMutability": "nonpayable",
      "type": "function"
    },
    {
      "inputs": [
        {
          "internalType": "address",
          "name": "newOwner",
          "type": "address"
        }
      ],
      "name": "transferOwnership",
      "outputs": [],
      "stateMutability": "nonpayable",
      "type": "function"
    }
  ],
  "transactionHash": "0x5c044116ba63442f3aea333b3ae81b33665d7573f4bb27f7cf3e72dec7ff682d",
  "args": [
    "0x9B19c71120b4884D33f6809De3B93E233bDad5d4"
  ],
  "numDeployments": 1,
  "solcInputHash": "ebdb843cadac3eb3b00abf9144ddd5ad",
  "bytecode": "0x60a06040523480156200001157600080fd5b506040516200118e3803806200118e8339810160408190526200003491620001c4565b6200003f336200015b565b6001600160a01b03811660808190526040516302571be360e01b81527f91d1777781884d03a6757a803996e38de2a42967fb37eeaca72729271025a9e26004820152600091906302571be390602401602060405180830381865afa158015620000ac573d6000803e3d6000fd5b505050506040513d601f19601f82011682018060405250810190620000d29190620001c4565b90506001600160a01b038116156200015357604051630f41a04d60e11b81523360048201526001600160a01b03821690631e83409a906024016020604051808303816000875af11580156200012b573d6000803e3d6000fd5b505050506040513d601f19601f82011682018060405250810190620001519190620001eb565b505b505062000205565b600080546001600160a01b038381166001600160a01b0319831681178455604051919092169283917f8be0079c531659141344cd1fd0a4f28419497f9722a3daafe3b4186f6b6457e09190a35050565b6001600160a01b0381168114620001c157600080fd5b50565b600060208284031215620001d757600080fd5b8151620001e481620001ab565b9392505050565b600060208284031215620001fe57600080fd5b5051919050565b608051610f5f6200022f600039600081816101400152818161033e01526105890152610f5f6000f3fe608060405234801561001057600080fd5b50600436106100ea5760003560e01c80638da5cb5b1161008c578063c66485b211610066578063c66485b214610208578063da8c229e1461021b578063e0dba60f1461024e578063f2fde38b1461026157600080fd5b80638da5cb5b146101c4578063bffbe61c146101e2578063c47f0027146101f557600080fd5b80636f14a0d1116100c85780636f14a0d11461013b578063715018a6146101875780637a806d6b14610191578063828eab0e146101a457600080fd5b80630f5a5466146100ef5780631e83409a146101155780636566963114610128575b600080fd5b6101026100fd366004610c12565b610274565b6040519081526020015b60405180910390f35b610102610123366004610c4b565b610288565b610102610136366004610c68565b6102b7565b6101627f000000000000000000000000000000000000000000000000000000000000000081565b60405173ffffffffffffffffffffffffffffffffffffffff909116815260200161010c565b61018f6105f0565b005b61010261019f366004610d8d565b610604565b6002546101629073ffffffffffffffffffffffffffffffffffffffff1681565b60005473ffffffffffffffffffffffffffffffffffffffff16610162565b6101026101f0366004610c4b565b6106a5565b610102610203366004610e02565b610700565b61018f610216366004610c4b565b61072a565b61023e610229366004610c4b565b60016020526000908152604090205460ff1681565b604051901515815260200161010c565b61018f61025c366004610e4d565b610844565b61018f61026f366004610c4b565b6108d6565b60006102813384846102b7565b9392505050565b6002546000906102b1903390849073ffffffffffffffffffffffffffffffffffffffff166102b7565b92915050565b60008373ffffffffffffffffffffffffffffffffffffffff81163314806102ed57503360009081526001602052604090205460ff165b806103a957506040517fe985e9c500000000000000000000000000000000000000000000000000000000815273ffffffffffffffffffffffffffffffffffffffff82811660048301523360248301527f0000000000000000000000000000000000000000000000000000000000000000169063e985e9c590604401602060405180830381865afa158015610385573d6000803e3d6000fd5b505050506040513d601f19601f820116820180604052508101906103a99190610e7b565b806103b857506103b88161098d565b61046f576040517f08c379a000000000000000000000000000000000000000000000000000000000815260206004820152605b60248201527f526576657273655265676973747261723a2043616c6c6572206973206e6f742060448201527f6120636f6e74726f6c6c6572206f7220617574686f726973656420627920616460648201527f6472657373206f7220746865206164647265737320697473656c660000000000608482015260a4015b60405180910390fd5b600061047a86610a3e565b604080517f91d1777781884d03a6757a803996e38de2a42967fb37eeaca72729271025a9e26020808301919091528183018490528251808303840181526060909201928390528151910120919250819073ffffffffffffffffffffffffffffffffffffffff8916907f6ada868dd3058cf77a48a74489fd7963688e5464b2b0fa957ace976243270e9290600090a36040517f5ef2c7f00000000000000000000000000000000000000000000000000000000081527f91d1777781884d03a6757a803996e38de2a42967fb37eeaca72729271025a9e260048201526024810183905273ffffffffffffffffffffffffffffffffffffffff87811660448301528681166064830152600060848301527f00000000000000000000000000000000000000000000000000000000000000001690635ef2c7f09060a401600060405180830381600087803b1580156105cd57600080fd5b505af11580156105e1573d6000803e3d6000fd5b50929998505050505050505050565b6105f8610afa565b6106026000610b7b565b565b6000806106128686866102b7565b6040517f7737221300000000000000000000000000000000000000000000000000000000815290915073ffffffffffffffffffffffffffffffffffffffff8516906377372213906106699084908790600401610e98565b600060405180830381600087803b15801561068357600080fd5b505af1158015610697573d6000803e3d6000fd5b509298975050505050505050565b60007f91d1777781884d03a6757a803996e38de2a42967fb37eeaca72729271025a9e26106d183610a3e565b604080516020810193909352820152606001604051602081830303815290604052805190602001209050919050565b6002546000906102b1903390819073ffffffffffffffffffffffffffffffffffffffff1685610604565b610732610afa565b73ffffffffffffffffffffffffffffffffffffffff81166107d5576040517f08c379a000000000000000000000000000000000000000000000000000000000815260206004820152603060248201527f526576657273655265676973747261723a205265736f6c76657220616464726560448201527f7373206d757374206e6f742062652030000000000000000000000000000000006064820152608401610466565b600280547fffffffffffffffffffffffff00000000000000000000000000000000000000001673ffffffffffffffffffffffffffffffffffffffff83169081179091556040517feae17a84d9eb83d8c8eb317f9e7d64857bc363fa51674d996c023f4340c577cf90600090a250565b61084c610afa565b73ffffffffffffffffffffffffffffffffffffffff821660008181526001602090815260409182902080547fffffffffffffffffffffffffffffffffffffffffffffffffffffffffffffff001685151590811790915591519182527f4c97694570a07277810af7e5669ffd5f6a2d6b74b6e9a274b8b870fd5114cf87910160405180910390a25050565b6108de610afa565b73ffffffffffffffffffffffffffffffffffffffff8116610981576040517f08c379a000000000000000000000000000000000000000000000000000000000815260206004820152602660248201527f4f776e61626c653a206e6577206f776e657220697320746865207a65726f206160448201527f64647265737300000000000000000000000000000000000000000000000000006064820152608401610466565b61098a81610b7b565b50565b60008173ffffffffffffffffffffffffffffffffffffffff16638da5cb5b6040518163ffffffff1660e01b8152600401602060405180830381865afa925050508015610a14575060408051601f3d9081017fffffffffffffffffffffffffffffffffffffffffffffffffffffffffffffffe0168201909252610a1191810190610f0c565b60015b610a2057506000919050565b73ffffffffffffffffffffffffffffffffffffffff16331492915050565b600060285b8015610aee577fffffffffffffffffffffffffffffffffffffffffffffffffffffffffffffffff017f3031323334353637383961626364656600000000000000000000000000000000600f84161a81536010909204917fffffffffffffffffffffffffffffffffffffffffffffffffffffffffffffffff017f3031323334353637383961626364656600000000000000000000000000000000600f84161a8153601083049250610a43565b50506028600020919050565b60005473ffffffffffffffffffffffffffffffffffffffff163314610602576040517f08c379a000000000000000000000000000000000000000000000000000000000815260206004820181905260248201527f4f776e61626c653a2063616c6c6572206973206e6f7420746865206f776e65726044820152606401610466565b6000805473ffffffffffffffffffffffffffffffffffffffff8381167fffffffffffffffffffffffff0000000000000000000000000000000000000000831681178455604051919092169283917f8be0079c531659141344cd1fd0a4f28419497f9722a3daafe3b4186f6b6457e09190a35050565b73ffffffffffffffffffffffffffffffffffffffff8116811461098a57600080fd5b60008060408385031215610c2557600080fd5b8235610c3081610bf0565b91506020830135610c4081610bf0565b809150509250929050565b600060208284031215610c5d57600080fd5b813561028181610bf0565b600080600060608486031215610c7d57600080fd5b8335610c8881610bf0565b92506020840135610c9881610bf0565b91506040840135610ca881610bf0565b809150509250925092565b7f4e487b7100000000000000000000000000000000000000000000000000000000600052604160045260246000fd5b600082601f830112610cf357600080fd5b813567ffffffffffffffff80821115610d0e57610d0e610cb3565b604051601f83017fffffffffffffffffffffffffffffffffffffffffffffffffffffffffffffffe0908116603f01168101908282118183101715610d5457610d54610cb3565b81604052838152866020858801011115610d6d57600080fd5b836020870160208301376000602085830101528094505050505092915050565b60008060008060808587031215610da357600080fd5b8435610dae81610bf0565b93506020850135610dbe81610bf0565b92506040850135610dce81610bf0565b9150606085013567ffffffffffffffff811115610dea57600080fd5b610df687828801610ce2565b91505092959194509250565b600060208284031215610e1457600080fd5b813567ffffffffffffffff811115610e2b57600080fd5b610e3784828501610ce2565b949350505050565b801515811461098a57600080fd5b60008060408385031215610e6057600080fd5b8235610e6b81610bf0565b91506020830135610c4081610e3f565b600060208284031215610e8d57600080fd5b815161028181610e3f565b82815260006020604081840152835180604085015260005b81811015610ecc57858101830151858201606001528201610eb0565b5060006060828601015260607fffffffffffffffffffffffffffffffffffffffffffffffffffffffffffffffe0601f830116850101925050509392505050565b600060208284031215610f1e57600080fd5b815161028181610bf056fea2646970667358221220c6d6c891bbab412f9749251b4f6ce9287442e8382e94cc0a885d25aca1cf068c64736f6c63430008110033",
  "devdoc": {
    "kind": "dev",
    "methods": {
      "claim(address)": {
        "details": "Transfers ownership of the reverse ins record associated with the      calling account.",
        "params": {
          "owner": "The address to set as the owner of the reverse record in ins."
        },
        "returns": {
          "_0": "The ins node hash of the reverse record."
        }
      },
      "claimForAddr(address,address,address)": {
        "details": "Transfers ownership of the reverse ins record associated with the      calling account.",
        "params": {
          "addr": "The reverse record to set",
          "owner": "The address to set as the owner of the reverse record in ins.",
          "resolver": "The resolver of the reverse node"
        },
        "returns": {
          "_0": "The ins node hash of the reverse record."
        }
      },
      "claimWithResolver(address,address)": {
        "details": "Transfers ownership of the reverse INS record associated with the      calling account.",
        "params": {
          "owner": "The address to set as the owner of the reverse record in INS.",
          "resolver": "The address of the resolver to set; 0 to leave unchanged."
        },
        "returns": {
          "_0": "The INS node hash of the reverse record."
        }
      },
      "constructor": {
        "details": "Constructor",
        "params": {
          "_ins": "The address of the INS registry."
        }
      },
      "node(address)": {
        "details": "Returns the node hash for a given account's reverse records.",
        "params": {
          "addr": "The address to hash"
        },
        "returns": {
          "_0": "The INS node hash."
        }
      },
      "owner()": {
        "details": "Returns the address of the current owner."
      },
      "renounceOwnership()": {
        "details": "Leaves the contract without owner. It will not be possible to call `onlyOwner` functions anymore. Can only be called by the current owner. NOTE: Renouncing ownership will leave the contract without an owner, thereby removing any functionality that is only available to the owner."
      },
      "setName(string)": {
        "details": "Sets the `name()` record for the reverse INS record associated with the calling account. First updates the resolver to the default reverse resolver if necessary.",
        "params": {
          "name": "The name to set for this address."
        },
        "returns": {
          "_0": "The INS node hash of the reverse record."
        }
      },
      "setNameForAddr(address,address,address,string)": {
        "details": "Sets the `name()` record for the reverse INS record associated with the account provided. Updates the resolver to a designated resolver Only callable by controllers and authorised users",
        "params": {
          "addr": "The reverse record to set",
          "name": "The name to set for this address.",
          "owner": "The owner of the reverse node",
          "resolver": "The resolver of the reverse node"
        },
        "returns": {
          "_0": "The INS node hash of the reverse record."
        }
      },
      "transferOwnership(address)": {
        "details": "Transfers ownership of the contract to a new account (`newOwner`). Can only be called by the current owner."
      }
    },
    "version": 1
  },
  "userdoc": {
    "kind": "user",
    "methods": {},
    "version": 1
  },
  "storageLayout": {
    "storage": [
      {
        "astId": 7,
        "contract": "src/reverseRegistrar/ReverseRegistrar.sol:ReverseRegistrar",
        "label": "_owner",
        "offset": 0,
        "slot": "0",
        "type": "t_address"
      },
      {
        "astId": 5848,
        "contract": "src/reverseRegistrar/ReverseRegistrar.sol:ReverseRegistrar",
        "label": "controllers",
        "offset": 0,
        "slot": "1",
        "type": "t_mapping(t_address,t_bool)"
      },
      {
        "astId": 5520,
        "contract": "src/reverseRegistrar/ReverseRegistrar.sol:ReverseRegistrar",
        "label": "defaultResolver",
        "offset": 0,
        "slot": "2",
        "type": "t_contract(NameResolver)5502"
      }
    ],
    "types": {
      "t_address": {
        "encoding": "inplace",
        "label": "address",
        "numberOfBytes": "20"
      },
      "t_bool": {
        "encoding": "inplace",
        "label": "bool",
        "numberOfBytes": "1"
      },
      "t_contract(NameResolver)5502": {
        "encoding": "inplace",
        "label": "contract NameResolver",
        "numberOfBytes": "20"
      },
      "t_mapping(t_address,t_bool)": {
        "encoding": "mapping",
        "key": "t_address",
        "label": "mapping(address => bool)",
        "numberOfBytes": "32",
        "value": "t_bool"
      }
    }
  }
}